{
  "contractName": "ArtMarketplace",
  "abi": [
    {
      "inputs": [
        {
          "internalType": "address",
          "name": "digitalPiecesAddress",
          "type": "address"
        },
        {
          "internalType": "address",
          "name": "digitalCollectionAddress",
          "type": "address"
        },
        {
          "internalType": "address",
          "name": "artCoinAddress",
          "type": "address"
        },
        {
          "internalType": "uint256",
          "name": "commissionPercentage",
          "type": "uint256"
        }
      ],
      "stateMutability": "nonpayable",
      "type": "constructor"
    },
    {
      "anonymous": false,
      "inputs": [
        {
          "indexed": false,
          "internalType": "uint256",
          "name": "tokenId",
          "type": "uint256"
        },
        {
          "indexed": false,
          "internalType": "uint256",
          "name": "price",
          "type": "uint256"
        }
      ],
      "name": "ERC1155Listed",
      "type": "event"
    },
    {
      "anonymous": false,
      "inputs": [
        {
          "indexed": false,
          "internalType": "uint256",
          "name": "tokenId",
          "type": "uint256"
        },
        {
          "indexed": false,
          "internalType": "address",
          "name": "buyer",
          "type": "address"
        },
        {
          "indexed": false,
          "internalType": "uint256",
          "name": "amount",
          "type": "uint256"
        }
      ],
      "name": "ERC1155Purchased",
      "type": "event"
    },
    {
      "anonymous": false,
      "inputs": [
        {
          "indexed": false,
          "internalType": "uint256",
          "name": "tokenId",
          "type": "uint256"
        },
        {
          "indexed": false,
          "internalType": "uint256",
          "name": "price",
          "type": "uint256"
        }
      ],
      "name": "ERC721Listed",
      "type": "event"
    },
    {
      "anonymous": false,
      "inputs": [
        {
          "indexed": false,
          "internalType": "uint256",
          "name": "tokenId",
          "type": "uint256"
        },
        {
          "indexed": false,
          "internalType": "address",
          "name": "buyer",
          "type": "address"
        }
      ],
      "name": "ERC721Purchased",
      "type": "event"
    },
    {
      "inputs": [
        {
          "internalType": "uint256",
          "name": "tokenId",
          "type": "uint256"
        },
        {
          "internalType": "uint256",
          "name": "price",
          "type": "uint256"
        }
      ],
      "name": "listERC721",
      "outputs": [],
      "stateMutability": "nonpayable",
      "type": "function"
    },
    {
      "inputs": [
        {
          "internalType": "uint256",
          "name": "tokenId",
          "type": "uint256"
        },
        {
          "internalType": "uint256",
          "name": "price",
          "type": "uint256"
        }
      ],
      "name": "listERC1155",
      "outputs": [],
      "stateMutability": "nonpayable",
      "type": "function"
    },
    {
      "inputs": [
        {
          "internalType": "uint256",
          "name": "tokenId",
          "type": "uint256"
        }
      ],
      "name": "buyERC721",
      "outputs": [],
      "stateMutability": "nonpayable",
      "type": "function"
    },
    {
      "inputs": [
        {
          "internalType": "uint256",
          "name": "tokenId",
          "type": "uint256"
        },
        {
          "internalType": "uint256",
          "name": "amount",
          "type": "uint256"
        }
      ],
      "name": "buyERC1155",
      "outputs": [],
      "stateMutability": "nonpayable",
      "type": "function"
    },
    {
      "inputs": [
        {
          "internalType": "uint256",
          "name": "newPercentage",
          "type": "uint256"
        }
      ],
      "name": "setCommissionPercentage",
      "outputs": [],
      "stateMutability": "nonpayable",
      "type": "function"
    },
    {
      "inputs": [
        {
          "internalType": "uint256",
          "name": "tokenId",
          "type": "uint256"
        }
      ],
      "name": "getERC721Price",
      "outputs": [
        {
          "internalType": "uint256",
          "name": "",
          "type": "uint256"
        }
      ],
      "stateMutability": "view",
      "type": "function",
      "constant": true
    },
    {
      "inputs": [
        {
          "internalType": "uint256",
          "name": "tokenId",
          "type": "uint256"
        }
      ],
      "name": "getERC1155Price",
      "outputs": [
        {
          "internalType": "uint256",
          "name": "",
          "type": "uint256"
        }
      ],
      "stateMutability": "view",
      "type": "function",
      "constant": true
    },
    {
      "inputs": [
        {
          "internalType": "uint256",
          "name": "tokenId",
          "type": "uint256"
        }
      ],
      "name": "isERC721Listed",
      "outputs": [
        {
          "internalType": "bool",
          "name": "",
          "type": "bool"
        }
      ],
      "stateMutability": "view",
      "type": "function",
      "constant": true
    },
    {
      "inputs": [
        {
          "internalType": "uint256",
          "name": "tokenId",
          "type": "uint256"
        }
      ],
      "name": "isERC1155Listed",
      "outputs": [
        {
          "internalType": "bool",
          "name": "",
          "type": "bool"
        }
      ],
      "stateMutability": "view",
      "type": "function",
      "constant": true
    }
  ],
  "bytecode": "0x60806040523480156200001157600080fd5b5060405162001a2338038062001a238339818101604052810190620000379190620001af565b836000806101000a81548173ffffffffffffffffffffffffffffffffffffffff021916908373ffffffffffffffffffffffffffffffffffffffff16021790555082600160006101000a81548173ffffffffffffffffffffffffffffffffffffffff021916908373ffffffffffffffffffffffffffffffffffffffff16021790555081600260006101000a81548173ffffffffffffffffffffffffffffffffffffffff021916908373ffffffffffffffffffffffffffffffffffffffff160217905550806003819055505050505062000221565b600080fd5b600073ffffffffffffffffffffffffffffffffffffffff82169050919050565b60006200013c826200010f565b9050919050565b6200014e816200012f565b81146200015a57600080fd5b50565b6000815190506200016e8162000143565b92915050565b6000819050919050565b620001898162000174565b81146200019557600080fd5b50565b600081519050620001a9816200017e565b92915050565b60008060008060808587031215620001cc57620001cb6200010a565b5b6000620001dc878288016200015d565b9450506020620001ef878288016200015d565b935050604062000202878288016200015d565b9250506060620002158782880162000198565b91505092959194509250565b6117f280620002316000396000f3fe608060405234801561001057600080fd5b50600436106100935760003560e01c8063a55c9b1511610066578063a55c9b1514610130578063a8b0080c14610160578063c5592e6714610190578063d2f4f4ae146101ac578063ffed0da2146101c857610093565b8063107e91c01461009857806322357861146100c857806339b87c8f146100f8578063944cce5b14610114575b600080fd5b6100b260048036038101906100ad9190611093565b6101e4565b6040516100bf91906110cf565b60405180910390f35b6100e260048036038101906100dd9190611093565b610261565b6040516100ef91906110cf565b60405180910390f35b610112600480360381019061010d9190611093565b6102de565b005b61012e60048036038101906101299190611093565b61032c565b005b61014a60048036038101906101459190611093565b6106c0565b6040516101579190611105565b60405180910390f35b61017a60048036038101906101759190611093565b6106ea565b6040516101879190611105565b60405180910390f35b6101aa60048036038101906101a59190611120565b610714565b005b6101c660048036038101906101c19190611120565b61092b565b005b6101e260048036038101906101dd9190611120565b610d93565b005b60006007600083815260200190815260200160002060009054906101000a900460ff16610246576040517f08c379a000000000000000000000000000000000000000000000000000000000815260040161023d906111bd565b60405180910390fd5b60066000838152602001908152602001600020549050919050565b60006005600083815260200190815260200160002060009054906101000a900460ff166102c3576040517f08c379a00000000000000000000000000000000000000000000000000000000081526004016102ba906111bd565b60405180910390fd5b60046000838152602001908152602001600020549050919050565b6064811115610322576040517f08c379a00000000000000000000000000000000000000000000000000000000081526004016103199061124f565b60405180910390fd5b8060038190555050565b6005600082815260200190815260200160002060009054906101000a900460ff1661038c576040517f08c379a0000000000000000000000000000000000000000000000000000000008152600401610383906111bd565b60405180910390fd5b60006004600083815260200190815260200160002054905060006103ce60646103c06003548561101690919063ffffffff16565b61102c90919063ffffffff16565b905060006103e5828461104290919063ffffffff16565b9050600260009054906101000a900473ffffffffffffffffffffffffffffffffffffffff1673ffffffffffffffffffffffffffffffffffffffff166323b872dd3330856040518463ffffffff1660e01b8152600401610446939291906112b0565b6020604051808303816000875af1158015610465573d6000803e3d6000fd5b505050506040513d601f19601f820116820180604052508101906104899190611313565b50600260009054906101000a900473ffffffffffffffffffffffffffffffffffffffff1673ffffffffffffffffffffffffffffffffffffffff166323b872dd3360008054906101000a900473ffffffffffffffffffffffffffffffffffffffff1673ffffffffffffffffffffffffffffffffffffffff16636352211e886040518263ffffffff1660e01b815260040161052291906110cf565b602060405180830381865afa15801561053f573d6000803e3d6000fd5b505050506040513d601f19601f82011682018060405250810190610563919061136c565b846040518463ffffffff1660e01b8152600401610582939291906112b0565b6020604051808303816000875af11580156105a1573d6000803e3d6000fd5b505050506040513d601f19601f820116820180604052508101906105c59190611313565b5060008054906101000a900473ffffffffffffffffffffffffffffffffffffffff1673ffffffffffffffffffffffffffffffffffffffff166323b872dd3033876040518463ffffffff1660e01b8152600401610623939291906112b0565b600060405180830381600087803b15801561063d57600080fd5b505af1158015610651573d6000803e3d6000fd5b5050505060006005600086815260200190815260200160002060006101000a81548160ff0219169083151502179055507f60e8438274424885eeeef64e2795eb5cd4e8353a25ff82069f2a8c8b4fd3007d84336040516106b2929190611399565b60405180910390a150505050565b60006005600083815260200190815260200160002060009054906101000a900460ff169050919050565b60006007600083815260200190815260200160002060009054906101000a900460ff169050919050565b3373ffffffffffffffffffffffffffffffffffffffff1660008054906101000a900473ffffffffffffffffffffffffffffffffffffffff1673ffffffffffffffffffffffffffffffffffffffff16636352211e846040518263ffffffff1660e01b815260040161078491906110cf565b602060405180830381865afa1580156107a1573d6000803e3d6000fd5b505050506040513d601f19601f820116820180604052508101906107c5919061136c565b73ffffffffffffffffffffffffffffffffffffffff161461081b576040517f08c379a00000000000000000000000000000000000000000000000000000000081526004016108129061140e565b60405180910390fd5b60008054906101000a900473ffffffffffffffffffffffffffffffffffffffff1673ffffffffffffffffffffffffffffffffffffffff166323b872dd3330856040518463ffffffff1660e01b8152600401610878939291906112b0565b600060405180830381600087803b15801561089257600080fd5b505af11580156108a6573d6000803e3d6000fd5b5050505080600460008481526020019081526020016000208190555060016005600084815260200190815260200160002060006101000a81548160ff0219169083151502179055507fb1c28a0093cb03d79a3f18325c769fbbf8d619add38cb983d98a3a44d450c3d1828260405161091f92919061142e565b60405180910390a15050565b6007600083815260200190815260200160002060009054906101000a900460ff1661098b576040517f08c379a0000000000000000000000000000000000000000000000000000000008152600401610982906111bd565b60405180910390fd5b6000600160009054906101000a900473ffffffffffffffffffffffffffffffffffffffff1673ffffffffffffffffffffffffffffffffffffffff1663d6a9de51846040518263ffffffff1660e01b81526004016109e891906110cf565b602060405180830381865afa158015610a05573d6000803e3d6000fd5b505050506040513d601f19601f82011682018060405250810190610a29919061136c565b905081600160009054906101000a900473ffffffffffffffffffffffffffffffffffffffff1673ffffffffffffffffffffffffffffffffffffffff1662fdd58e83866040518363ffffffff1660e01b8152600401610a88929190611457565b602060405180830381865afa158015610aa5573d6000803e3d6000fd5b505050506040513d601f19601f82011682018060405250810190610ac99190611495565b1015610b0a576040517f08c379a0000000000000000000000000000000000000000000000000000000008152600401610b0190611534565b60405180910390fd5b6000610b3283600660008781526020019081526020016000205461101690919063ffffffff16565b90506000610b5e6064610b506003548561101690919063ffffffff16565b61102c90919063ffffffff16565b90506000610b75828461104290919063ffffffff16565b9050600260009054906101000a900473ffffffffffffffffffffffffffffffffffffffff1673ffffffffffffffffffffffffffffffffffffffff166323b872dd3330856040518463ffffffff1660e01b8152600401610bd6939291906112b0565b6020604051808303816000875af1158015610bf5573d6000803e3d6000fd5b505050506040513d601f19601f82011682018060405250810190610c199190611313565b50600260009054906101000a900473ffffffffffffffffffffffffffffffffffffffff1673ffffffffffffffffffffffffffffffffffffffff166323b872dd3386846040518463ffffffff1660e01b8152600401610c79939291906112b0565b6020604051808303816000875af1158015610c98573d6000803e3d6000fd5b505050506040513d601f19601f82011682018060405250810190610cbc9190611313565b50600160009054906101000a900473ffffffffffffffffffffffffffffffffffffffff1673ffffffffffffffffffffffffffffffffffffffff1663f242432a303389896040518563ffffffff1660e01b8152600401610d1e949392919061158b565b600060405180830381600087803b158015610d3857600080fd5b505af1158015610d4c573d6000803e3d6000fd5b505050507fe803398184505dd9c9e1196566fca5fb48818e4d71e7fbaecfe68b4d2b2256d7863387604051610d83939291906115e3565b60405180910390a1505050505050565b6000600160009054906101000a900473ffffffffffffffffffffffffffffffffffffffff1673ffffffffffffffffffffffffffffffffffffffff1662fdd58e33856040518363ffffffff1660e01b8152600401610df1929190611457565b602060405180830381865afa158015610e0e573d6000803e3d6000fd5b505050506040513d601f19601f82011682018060405250810190610e329190611495565b11610e72576040517f08c379a0000000000000000000000000000000000000000000000000000000008152600401610e699061140e565b60405180910390fd5b600160009054906101000a900473ffffffffffffffffffffffffffffffffffffffff1673ffffffffffffffffffffffffffffffffffffffff1663bb41631083336040518363ffffffff1660e01b8152600401610ecf929190611399565b600060405180830381600087803b158015610ee957600080fd5b505af1158015610efd573d6000803e3d6000fd5b50505050600160009054906101000a900473ffffffffffffffffffffffffffffffffffffffff1673ffffffffffffffffffffffffffffffffffffffff1663f242432a33308560016040518563ffffffff1660e01b8152600401610f63949392919061165f565b600060405180830381600087803b158015610f7d57600080fd5b505af1158015610f91573d6000803e3d6000fd5b5050505080600660008481526020019081526020016000208190555060016007600084815260200190815260200160002060006101000a81548160ff0219169083151502179055507f5aa8d33d56243f1294950c5d428733dfcdbc821cd895502285e095014b9c3c60828260405161100a92919061142e565b60405180910390a15050565b6000818361102491906116e6565b905092915050565b6000818361103a9190611757565b905092915050565b600081836110509190611788565b905092915050565b600080fd5b6000819050919050565b6110708161105d565b811461107b57600080fd5b50565b60008135905061108d81611067565b92915050565b6000602082840312156110a9576110a8611058565b5b60006110b78482850161107e565b91505092915050565b6110c98161105d565b82525050565b60006020820190506110e460008301846110c0565b92915050565b60008115159050919050565b6110ff816110ea565b82525050565b600060208201905061111a60008301846110f6565b92915050565b6000806040838503121561113757611136611058565b5b60006111458582860161107e565b92505060206111568582860161107e565b9150509250929050565b600082825260208201905092915050565b7f546f6b656e206e6f74206c697374656400000000000000000000000000000000600082015250565b60006111a7601083611160565b91506111b282611171565b602082019050919050565b600060208201905081810360008301526111d68161119a565b9050919050565b7f50657263656e74616765206d757374206265206c657373207468616e206f722060008201527f657175616c20746f203130300000000000000000000000000000000000000000602082015250565b6000611239602c83611160565b9150611244826111dd565b604082019050919050565b600060208201905081810360008301526112688161122c565b9050919050565b600073ffffffffffffffffffffffffffffffffffffffff82169050919050565b600061129a8261126f565b9050919050565b6112aa8161128f565b82525050565b60006060820190506112c560008301866112a1565b6112d260208301856112a1565b6112df60408301846110c0565b949350505050565b6112f0816110ea565b81146112fb57600080fd5b50565b60008151905061130d816112e7565b92915050565b60006020828403121561132957611328611058565b5b6000611337848285016112fe565b91505092915050565b6113498161128f565b811461135457600080fd5b50565b60008151905061136681611340565b92915050565b60006020828403121561138257611381611058565b5b600061139084828501611357565b91505092915050565b60006040820190506113ae60008301856110c0565b6113bb60208301846112a1565b9392505050565b7f4e6f7420746865206f776e657200000000000000000000000000000000000000600082015250565b60006113f8600d83611160565b9150611403826113c2565b602082019050919050565b60006020820190508181036000830152611427816113eb565b9050919050565b600060408201905061144360008301856110c0565b61145060208301846110c0565b9392505050565b600060408201905061146c60008301856112a1565b61147960208301846110c0565b9392505050565b60008151905061148f81611067565b92915050565b6000602082840312156114ab576114aa611058565b5b60006114b984828501611480565b91505092915050565b7f53656c6c657220646f6573206e6f74206861766520656e6f75676820746f6b6560008201527f6e73000000000000000000000000000000000000000000000000000000000000602082015250565b600061151e602283611160565b9150611529826114c2565b604082019050919050565b6000602082019050818103600083015261154d81611511565b9050919050565b600082825260208201905092915050565b50565b6000611575600083611554565b915061158082611565565b600082019050919050565b600060a0820190506115a060008301876112a1565b6115ad60208301866112a1565b6115ba60408301856110c0565b6115c760608301846110c0565b81810360808301526115d881611568565b905095945050505050565b60006060820190506115f860008301866110c0565b61160560208301856112a1565b61161260408301846110c0565b949350505050565b6000819050919050565b6000819050919050565b600061164961164461163f8461161a565b611624565b61105d565b9050919050565b6116598161162e565b82525050565b600060a08201905061167460008301876112a1565b61168160208301866112a1565b61168e60408301856110c0565b61169b6060830184611650565b81810360808301526116ac81611568565b905095945050505050565b7f4e487b7100000000000000000000000000000000000000000000000000000000600052601160045260246000fd5b60006116f18261105d565b91506116fc8361105d565b925082820261170a8161105d565b91508282048414831517611721576117206116b7565b5b5092915050565b7f4e487b7100000000000000000000000000000000000000000000000000000000600052601260045260246000fd5b60006117628261105d565b915061176d8361105d565b92508261177d5761177c611728565b5b828204905092915050565b60006117938261105d565b915061179e8361105d565b92508282039050818111156117b6576117b56116b7565b5b9291505056fea26469706673582212200d252d81e7a2cb6136f2480c3e645e1b705cef28b88e7a2fbbede22f464b193564736f6c63430008130033",
  "immutableReferences": {},
  "source": "// SPDX-License-Identifier: MIT\r\n\r\npragma solidity ^0.8.0;\r\n\r\nimport \"./DigitalPieces.sol\";\r\nimport \"./DigitalCollection.sol\";\r\nimport \"./ArtCoin.sol\";\r\nimport \"@openzeppelin/contracts/utils/math/SafeMath.sol\";\r\n\r\ncontract ArtMarketplace {\r\n    using SafeMath for uint256;\r\n\r\n    DigitalPieces private _digitalPieces;\r\n    DigitalCollection private _digitalCollection;\r\n    ArtCoin private _artCoin;\r\n\r\n    uint256 private _commissionPercentage;\r\n\r\n    mapping(uint256 => uint256) private _erc721Prices;\r\n    mapping(uint256 => bool) private _erc721Listed;\r\n    mapping(uint256 => uint256) private _erc1155Prices;\r\n    mapping(uint256 => bool) private _erc1155Listed;\r\n\r\n    event ERC721Listed(uint256 tokenId, uint256 price);\r\n    event ERC1155Listed(uint256 tokenId, uint256 price);\r\n    event ERC721Purchased(uint256 tokenId, address buyer);\r\n    event ERC1155Purchased(uint256 tokenId, address buyer, uint256 amount);\r\n\r\n    constructor(\r\n        address digitalPiecesAddress,\r\n        address digitalCollectionAddress,\r\n        address artCoinAddress,\r\n        uint256 commissionPercentage\r\n    ) {\r\n        _digitalPieces = DigitalPieces(digitalPiecesAddress);\r\n        _digitalCollection = DigitalCollection(digitalCollectionAddress);\r\n        _artCoin = ArtCoin(artCoinAddress);\r\n        _commissionPercentage = commissionPercentage;\r\n    }\r\n\r\n    function listERC721(uint256 tokenId, uint256 price) public {\r\n        require(_digitalPieces.ownerOf(tokenId) == msg.sender, \"Not the owner\");\r\n        _digitalPieces.transferFrom(msg.sender, address(this), tokenId);\r\n        _erc721Prices[tokenId] = price;\r\n        _erc721Listed[tokenId] = true;\r\n        emit ERC721Listed(tokenId, price);\r\n    }\r\n\r\n    function listERC1155(uint256 tokenId, uint256 price) public {\r\n        require(_digitalCollection.balanceOf(msg.sender, tokenId) > 0, \"Not the owner\");\r\n        _digitalCollection.setTokenSeller(tokenId, msg.sender);\r\n        _digitalCollection.safeTransferFrom(msg.sender, address(this), tokenId, 1, \"\");\r\n        _erc1155Prices[tokenId] = price;\r\n        _erc1155Listed[tokenId] = true;\r\n        emit ERC1155Listed(tokenId, price);\r\n    }\r\n\r\n\r\n\r\n    function buyERC721(uint256 tokenId) public {\r\n        require(_erc721Listed[tokenId], \"Token not listed\");\r\n        uint256 price = _erc721Prices[tokenId];\r\n        uint256 commission = price.mul(_commissionPercentage).div(100);\r\n        uint256 sellerShare = price.sub(commission);\r\n\r\n        _artCoin.transferFrom(msg.sender, address(this), commission);\r\n        _artCoin.transferFrom(msg.sender, _digitalPieces.ownerOf(tokenId), sellerShare);\r\n\r\n        _digitalPieces.transferFrom(address(this), msg.sender, tokenId);\r\n        _erc721Listed[tokenId] = false;\r\n\r\n        emit ERC721Purchased(tokenId, msg.sender);\r\n    }\r\n\r\n    function buyERC1155(uint256 tokenId, uint256 amount) public {\r\n        require(_erc1155Listed[tokenId], \"Token not listed\");\r\n        address seller = _digitalCollection.getSeller(tokenId);\r\n        require(_digitalCollection.balanceOf(seller, tokenId) >= amount, \"Seller does not have enough tokens\");\r\n        uint256 price = _erc1155Prices[tokenId].mul(amount);\r\n        uint256 commission = price.mul(_commissionPercentage).div(100);\r\n        uint256 sellerShare = price.sub(commission);\r\n\r\n        _artCoin.transferFrom(msg.sender, address(this), commission);\r\n        _artCoin.transferFrom(msg.sender, seller, sellerShare);\r\n\r\n        _digitalCollection.safeTransferFrom(address(this), msg.sender, tokenId, amount, \"\");\r\n\r\n        emit ERC1155Purchased(tokenId, msg.sender, amount);\r\n    }\r\n\r\n\r\n    function setCommissionPercentage(uint256 newPercentage) public {\r\n        require(newPercentage <= 100, \"Percentage must be less than or equal to 100\");\r\n        _commissionPercentage = newPercentage;\r\n    }\r\n\r\n    function getERC721Price(uint256 tokenId) public view returns (uint256) {\r\n        require(_erc721Listed[tokenId], \"Token not listed\");\r\n        return _erc721Prices[tokenId];\r\n    }\r\n\r\n    function getERC1155Price(uint256 tokenId) public view returns (uint256) {\r\n        require(_erc1155Listed[tokenId], \"Token not listed\");\r\n        return _erc1155Prices[tokenId];\r\n    }\r\n\r\n    function isERC721Listed(uint256 tokenId) public view returns (bool) {\r\n        return _erc721Listed[tokenId];\r\n    }\r\n\r\n    function isERC1155Listed(uint256 tokenId) public view returns (bool) {\r\n        return _erc1155Listed[tokenId];\r\n    }\r\n}\r\n",
  "sourcePath": "C:\\Users\\Usuario\\Desktop\\Creacin de tokens ERC-721 y ERC-1155\\contracts\\ArtMarketplace.sol",
  "compiler": {
    "name": "solc",
    "version": "0.8.19+commit.7dd6d404.Emscripten.clang"
  },
  "schemaVersion": "3.4.13",
  "updatedAt": "2023-03-22T22:14:54.178Z",
  "networkType": "ethereum",
  "devdoc": {
    "kind": "dev",
    "methods": {},
    "version": 1
  },
  "userdoc": {
    "kind": "user",
    "methods": {},
    "version": 1
  }
}