{
  "contractName": "DigitalCollection",
  "abi": [
    {
      "inputs": [
        {
          "internalType": "string",
          "name": "baseURI",
          "type": "string"
        }
      ],
      "stateMutability": "nonpayable",
      "type": "constructor"
    },
    {
      "anonymous": false,
      "inputs": [
        {
          "indexed": true,
          "internalType": "address",
          "name": "account",
          "type": "address"
        },
        {
          "indexed": true,
          "internalType": "address",
          "name": "operator",
          "type": "address"
        },
        {
          "indexed": false,
          "internalType": "bool",
          "name": "approved",
          "type": "bool"
        }
      ],
      "name": "ApprovalForAll",
      "type": "event"
    },
    {
      "anonymous": false,
      "inputs": [
        {
          "indexed": true,
          "internalType": "address",
          "name": "previousOwner",
          "type": "address"
        },
        {
          "indexed": true,
          "internalType": "address",
          "name": "newOwner",
          "type": "address"
        }
      ],
      "name": "OwnershipTransferred",
      "type": "event"
    },
    {
      "anonymous": false,
      "inputs": [
        {
          "indexed": true,
          "internalType": "address",
          "name": "operator",
          "type": "address"
        },
        {
          "indexed": true,
          "internalType": "address",
          "name": "from",
          "type": "address"
        },
        {
          "indexed": true,
          "internalType": "address",
          "name": "to",
          "type": "address"
        },
        {
          "indexed": false,
          "internalType": "uint256[]",
          "name": "ids",
          "type": "uint256[]"
        },
        {
          "indexed": false,
          "internalType": "uint256[]",
          "name": "values",
          "type": "uint256[]"
        }
      ],
      "name": "TransferBatch",
      "type": "event"
    },
    {
      "anonymous": false,
      "inputs": [
        {
          "indexed": true,
          "internalType": "address",
          "name": "operator",
          "type": "address"
        },
        {
          "indexed": true,
          "internalType": "address",
          "name": "from",
          "type": "address"
        },
        {
          "indexed": true,
          "internalType": "address",
          "name": "to",
          "type": "address"
        },
        {
          "indexed": false,
          "internalType": "uint256",
          "name": "id",
          "type": "uint256"
        },
        {
          "indexed": false,
          "internalType": "uint256",
          "name": "value",
          "type": "uint256"
        }
      ],
      "name": "TransferSingle",
      "type": "event"
    },
    {
      "anonymous": false,
      "inputs": [
        {
          "indexed": false,
          "internalType": "string",
          "name": "value",
          "type": "string"
        },
        {
          "indexed": true,
          "internalType": "uint256",
          "name": "id",
          "type": "uint256"
        }
      ],
      "name": "URI",
      "type": "event"
    },
    {
      "inputs": [
        {
          "internalType": "address",
          "name": "account",
          "type": "address"
        },
        {
          "internalType": "uint256",
          "name": "id",
          "type": "uint256"
        }
      ],
      "name": "balanceOf",
      "outputs": [
        {
          "internalType": "uint256",
          "name": "",
          "type": "uint256"
        }
      ],
      "stateMutability": "view",
      "type": "function",
      "constant": true
    },
    {
      "inputs": [
        {
          "internalType": "address[]",
          "name": "accounts",
          "type": "address[]"
        },
        {
          "internalType": "uint256[]",
          "name": "ids",
          "type": "uint256[]"
        }
      ],
      "name": "balanceOfBatch",
      "outputs": [
        {
          "internalType": "uint256[]",
          "name": "",
          "type": "uint256[]"
        }
      ],
      "stateMutability": "view",
      "type": "function",
      "constant": true
    },
    {
      "inputs": [
        {
          "internalType": "address",
          "name": "account",
          "type": "address"
        },
        {
          "internalType": "address",
          "name": "operator",
          "type": "address"
        }
      ],
      "name": "isApprovedForAll",
      "outputs": [
        {
          "internalType": "bool",
          "name": "",
          "type": "bool"
        }
      ],
      "stateMutability": "view",
      "type": "function",
      "constant": true
    },
    {
      "inputs": [],
      "name": "owner",
      "outputs": [
        {
          "internalType": "address",
          "name": "",
          "type": "address"
        }
      ],
      "stateMutability": "view",
      "type": "function",
      "constant": true
    },
    {
      "inputs": [],
      "name": "renounceOwnership",
      "outputs": [],
      "stateMutability": "nonpayable",
      "type": "function"
    },
    {
      "inputs": [
        {
          "internalType": "address",
          "name": "from",
          "type": "address"
        },
        {
          "internalType": "address",
          "name": "to",
          "type": "address"
        },
        {
          "internalType": "uint256[]",
          "name": "ids",
          "type": "uint256[]"
        },
        {
          "internalType": "uint256[]",
          "name": "amounts",
          "type": "uint256[]"
        },
        {
          "internalType": "bytes",
          "name": "data",
          "type": "bytes"
        }
      ],
      "name": "safeBatchTransferFrom",
      "outputs": [],
      "stateMutability": "nonpayable",
      "type": "function"
    },
    {
      "inputs": [
        {
          "internalType": "address",
          "name": "from",
          "type": "address"
        },
        {
          "internalType": "address",
          "name": "to",
          "type": "address"
        },
        {
          "internalType": "uint256",
          "name": "id",
          "type": "uint256"
        },
        {
          "internalType": "uint256",
          "name": "amount",
          "type": "uint256"
        },
        {
          "internalType": "bytes",
          "name": "data",
          "type": "bytes"
        }
      ],
      "name": "safeTransferFrom",
      "outputs": [],
      "stateMutability": "nonpayable",
      "type": "function"
    },
    {
      "inputs": [
        {
          "internalType": "address",
          "name": "operator",
          "type": "address"
        },
        {
          "internalType": "bool",
          "name": "approved",
          "type": "bool"
        }
      ],
      "name": "setApprovalForAll",
      "outputs": [],
      "stateMutability": "nonpayable",
      "type": "function"
    },
    {
      "inputs": [
        {
          "internalType": "bytes4",
          "name": "interfaceId",
          "type": "bytes4"
        }
      ],
      "name": "supportsInterface",
      "outputs": [
        {
          "internalType": "bool",
          "name": "",
          "type": "bool"
        }
      ],
      "stateMutability": "view",
      "type": "function",
      "constant": true
    },
    {
      "inputs": [
        {
          "internalType": "address",
          "name": "newOwner",
          "type": "address"
        }
      ],
      "name": "transferOwnership",
      "outputs": [],
      "stateMutability": "nonpayable",
      "type": "function"
    },
    {
      "inputs": [
        {
          "internalType": "uint256",
          "name": "",
          "type": "uint256"
        }
      ],
      "name": "uri",
      "outputs": [
        {
          "internalType": "string",
          "name": "",
          "type": "string"
        }
      ],
      "stateMutability": "view",
      "type": "function",
      "constant": true
    },
    {
      "inputs": [
        {
          "internalType": "uint256",
          "name": "amount",
          "type": "uint256"
        },
        {
          "internalType": "string",
          "name": "newTokenURI",
          "type": "string"
        }
      ],
      "name": "create",
      "outputs": [],
      "stateMutability": "nonpayable",
      "type": "function"
    },
    {
      "inputs": [
        {
          "internalType": "uint256",
          "name": "tokenId",
          "type": "uint256"
        },
        {
          "internalType": "address",
          "name": "seller",
          "type": "address"
        }
      ],
      "name": "setTokenSeller",
      "outputs": [],
      "stateMutability": "nonpayable",
      "type": "function"
    },
    {
      "inputs": [
        {
          "internalType": "uint256",
          "name": "tokenId",
          "type": "uint256"
        }
      ],
      "name": "tokenURI",
      "outputs": [
        {
          "internalType": "string",
          "name": "",
          "type": "string"
        }
      ],
      "stateMutability": "view",
      "type": "function",
      "constant": true
    },
    {
      "inputs": [
        {
          "internalType": "uint256",
          "name": "tokenId",
          "type": "uint256"
        }
      ],
      "name": "getSeller",
      "outputs": [
        {
          "internalType": "address",
          "name": "",
          "type": "address"
        }
      ],
      "stateMutability": "view",
      "type": "function",
      "constant": true
    }
  ],
  "bytecode": "0x608060405260006004553480156200001657600080fd5b50604051620038da380380620038da83398181016040528101906200003c9190620002ec565b806200004e816200007660201b60201c565b506200006f620000636200008b60201b60201c565b6200009360201b60201c565b506200066f565b806002908162000087919062000588565b5050565b600033905090565b6000600360009054906101000a900473ffffffffffffffffffffffffffffffffffffffff16905081600360006101000a81548173ffffffffffffffffffffffffffffffffffffffff021916908373ffffffffffffffffffffffffffffffffffffffff1602179055508173ffffffffffffffffffffffffffffffffffffffff168173ffffffffffffffffffffffffffffffffffffffff167f8be0079c531659141344cd1fd0a4f28419497f9722a3daafe3b4186f6b6457e060405160405180910390a35050565b6000604051905090565b600080fd5b600080fd5b600080fd5b600080fd5b6000601f19601f8301169050919050565b7f4e487b7100000000000000000000000000000000000000000000000000000000600052604160045260246000fd5b620001c28262000177565b810181811067ffffffffffffffff82111715620001e457620001e362000188565b5b80604052505050565b6000620001f962000159565b9050620002078282620001b7565b919050565b600067ffffffffffffffff8211156200022a576200022962000188565b5b620002358262000177565b9050602081019050919050565b60005b838110156200026257808201518184015260208101905062000245565b60008484015250505050565b6000620002856200027f846200020c565b620001ed565b905082815260208101848484011115620002a457620002a362000172565b5b620002b184828562000242565b509392505050565b600082601f830112620002d157620002d06200016d565b5b8151620002e38482602086016200026e565b91505092915050565b60006020828403121562000305576200030462000163565b5b600082015167ffffffffffffffff81111562000326576200032562000168565b5b6200033484828501620002b9565b91505092915050565b600081519050919050565b7f4e487b7100000000000000000000000000000000000000000000000000000000600052602260045260246000fd5b600060028204905060018216806200039057607f821691505b602082108103620003a657620003a562000348565b5b50919050565b60008190508160005260206000209050919050565b60006020601f8301049050919050565b600082821b905092915050565b600060088302620004107fffffffffffffffffffffffffffffffffffffffffffffffffffffffffffffffff82620003d1565b6200041c8683620003d1565b95508019841693508086168417925050509392505050565b6000819050919050565b6000819050919050565b600062000469620004636200045d8462000434565b6200043e565b62000434565b9050919050565b6000819050919050565b620004858362000448565b6200049d620004948262000470565b848454620003de565b825550505050565b600090565b620004b4620004a5565b620004c18184846200047a565b505050565b5b81811015620004e957620004dd600082620004aa565b600181019050620004c7565b5050565b601f82111562000538576200050281620003ac565b6200050d84620003c1565b810160208510156200051d578190505b620005356200052c85620003c1565b830182620004c6565b50505b505050565b600082821c905092915050565b60006200055d600019846008026200053d565b1980831691505092915050565b60006200057883836200054a565b9150826002028217905092915050565b62000593826200033d565b67ffffffffffffffff811115620005af57620005ae62000188565b5b620005bb825462000377565b620005c8828285620004ed565b600060209050601f831160018114620006005760008415620005eb578287015190505b620005f785826200056a565b86555062000667565b601f1984166200061086620003ac565b60005b828110156200063a5784890151825560018201915060208501945060208101905062000613565b868310156200065a578489015162000656601f8916826200054a565b8355505b6001600288020188555050505b505050505050565b61325b806200067f6000396000f3fe608060405234801561001057600080fd5b50600436106100f45760003560e01c80638da5cb5b11610097578063d6a9de5111610066578063d6a9de5114610281578063e985e9c5146102b1578063f242432a146102e1578063f2fde38b146102fd576100f4565b80638da5cb5b146101fb578063a22cb46514610219578063bb41631014610235578063c87b56dd14610251576100f4565b80630e89341c116100d35780630e89341c146101755780632eb2c2d6146101a55780634e1273f4146101c1578063715018a6146101f1576100f4565b8062fdd58e146100f95780630118fa491461012957806301ffc9a714610145575b600080fd5b610113600480360381019061010e9190611aef565b610319565b6040516101209190611b3e565b60405180910390f35b610143600480360381019061013e9190611c9f565b6103e1565b005b61015f600480360381019061015a9190611d53565b61044b565b60405161016c9190611d9b565b60405180910390f35b61018f600480360381019061018a9190611db6565b61052d565b60405161019c9190611e62565b60405180910390f35b6101bf60048036038101906101ba9190611fed565b6105c1565b005b6101db60048036038101906101d6919061217f565b610662565b6040516101e891906122b5565b60405180910390f35b6101f961077b565b005b61020361078f565b60405161021091906122e6565b60405180910390f35b610233600480360381019061022e919061232d565b6107b9565b005b61024f600480360381019061024a919061236d565b6107cf565b005b61026b60048036038101906102669190611db6565b6108ae565b6040516102789190611e62565b60405180910390f35b61029b60048036038101906102969190611db6565b610953565b6040516102a891906122e6565b60405180910390f35b6102cb60048036038101906102c691906123ad565b610990565b6040516102d89190611d9b565b60405180910390f35b6102fb60048036038101906102f691906123ed565b610a24565b005b61031760048036038101906103129190612484565b610ac5565b005b60008073ffffffffffffffffffffffffffffffffffffffff168373ffffffffffffffffffffffffffffffffffffffff1603610389576040517f08c379a000000000000000000000000000000000000000000000000000000000815260040161038090612523565b60405180910390fd5b60008083815260200190815260200160002060008473ffffffffffffffffffffffffffffffffffffffff1673ffffffffffffffffffffffffffffffffffffffff16815260200190815260200160002054905092915050565b6103e9610b48565b6000600454905061040b33828560405180602001604052806000815250610bc6565b8160056000838152602001908152602001600020908161042b919061274f565b50610440600182610d7690919063ffffffff16565b600481905550505050565b60007fd9b67a26000000000000000000000000000000000000000000000000000000007bffffffffffffffffffffffffffffffffffffffffffffffffffffffff1916827bffffffffffffffffffffffffffffffffffffffffffffffffffffffff1916148061051657507f0e89341c000000000000000000000000000000000000000000000000000000007bffffffffffffffffffffffffffffffffffffffffffffffffffffffff1916827bffffffffffffffffffffffffffffffffffffffffffffffffffffffff1916145b80610526575061052582610d8c565b5b9050919050565b60606002805461053c90612572565b80601f016020809104026020016040519081016040528092919081815260200182805461056890612572565b80156105b55780601f1061058a576101008083540402835291602001916105b5565b820191906000526020600020905b81548152906001019060200180831161059857829003601f168201915b50505050509050919050565b6105c9610df6565b73ffffffffffffffffffffffffffffffffffffffff168573ffffffffffffffffffffffffffffffffffffffff16148061060f575061060e85610609610df6565b610990565b5b61064e576040517f08c379a000000000000000000000000000000000000000000000000000000000815260040161064590612893565b60405180910390fd5b61065b8585858585610dfe565b5050505050565b606081518351146106a8576040517f08c379a000000000000000000000000000000000000000000000000000000000815260040161069f90612925565b60405180910390fd5b6000835167ffffffffffffffff8111156106c5576106c4611b74565b5b6040519080825280602002602001820160405280156106f35781602001602082028036833780820191505090505b50905060005b84518110156107705761074085828151811061071857610717612945565b5b602002602001015185838151811061073357610732612945565b5b6020026020010151610319565b82828151811061075357610752612945565b5b60200260200101818152505080610769906129a3565b90506106f9565b508091505092915050565b610783610b48565b61078d600061111f565b565b6000600360009054906101000a900473ffffffffffffffffffffffffffffffffffffffff16905090565b6107cb6107c4610df6565b83836111e5565b5050565b6107d761078f565b73ffffffffffffffffffffffffffffffffffffffff163373ffffffffffffffffffffffffffffffffffffffff161480610819575060006108173384610319565b115b610858576040517f08c379a000000000000000000000000000000000000000000000000000000000815260040161084f90612a5d565b60405180910390fd5b806006600084815260200190815260200160002060006101000a81548173ffffffffffffffffffffffffffffffffffffffff021916908373ffffffffffffffffffffffffffffffffffffffff1602179055505050565b60606005600083815260200190815260200160002080546108ce90612572565b80601f01602080910402602001604051908101604052809291908181526020018280546108fa90612572565b80156109475780601f1061091c57610100808354040283529160200191610947565b820191906000526020600020905b81548152906001019060200180831161092a57829003601f168201915b50505050509050919050565b60006006600083815260200190815260200160002060009054906101000a900473ffffffffffffffffffffffffffffffffffffffff169050919050565b6000600160008473ffffffffffffffffffffffffffffffffffffffff1673ffffffffffffffffffffffffffffffffffffffff16815260200190815260200160002060008373ffffffffffffffffffffffffffffffffffffffff1673ffffffffffffffffffffffffffffffffffffffff16815260200190815260200160002060009054906101000a900460ff16905092915050565b610a2c610df6565b73ffffffffffffffffffffffffffffffffffffffff168573ffffffffffffffffffffffffffffffffffffffff161480610a725750610a7185610a6c610df6565b610990565b5b610ab1576040517f08c379a0000000000000000000000000000000000000000000000000000000008152600401610aa890612893565b60405180910390fd5b610abe8585858585611351565b5050505050565b610acd610b48565b600073ffffffffffffffffffffffffffffffffffffffff168173ffffffffffffffffffffffffffffffffffffffff1603610b3c576040517f08c379a0000000000000000000000000000000000000000000000000000000008152600401610b3390612aef565b60405180910390fd5b610b458161111f565b50565b610b50610df6565b73ffffffffffffffffffffffffffffffffffffffff16610b6e61078f565b73ffffffffffffffffffffffffffffffffffffffff1614610bc4576040517f08c379a0000000000000000000000000000000000000000000000000000000008152600401610bbb90612b5b565b60405180910390fd5b565b600073ffffffffffffffffffffffffffffffffffffffff168473ffffffffffffffffffffffffffffffffffffffff1603610c35576040517f08c379a0000000000000000000000000000000000000000000000000000000008152600401610c2c90612bed565b60405180910390fd5b6000610c3f610df6565b90506000610c4c856115ec565b90506000610c59856115ec565b9050610c6a83600089858589611666565b8460008088815260200190815260200160002060008973ffffffffffffffffffffffffffffffffffffffff1673ffffffffffffffffffffffffffffffffffffffff1681526020019081526020016000206000828254610cc99190612c0d565b925050819055508673ffffffffffffffffffffffffffffffffffffffff16600073ffffffffffffffffffffffffffffffffffffffff168473ffffffffffffffffffffffffffffffffffffffff167fc3d58168c5ae7397731d063d5bbf3d657854427343f4c083240f7aacaa2d0f628989604051610d47929190612c41565b60405180910390a4610d5e8360008985858961166e565b610d6d83600089898989611676565b50505050505050565b60008183610d849190612c0d565b905092915050565b60007f01ffc9a7000000000000000000000000000000000000000000000000000000007bffffffffffffffffffffffffffffffffffffffffffffffffffffffff1916827bffffffffffffffffffffffffffffffffffffffffffffffffffffffff1916149050919050565b600033905090565b8151835114610e42576040517f08c379a0000000000000000000000000000000000000000000000000000000008152600401610e3990612cdc565b60405180910390fd5b600073ffffffffffffffffffffffffffffffffffffffff168473ffffffffffffffffffffffffffffffffffffffff1603610eb1576040517f08c379a0000000000000000000000000000000000000000000000000000000008152600401610ea890612d6e565b60405180910390fd5b6000610ebb610df6565b9050610ecb818787878787611666565b60005b845181101561107c576000858281518110610eec57610eeb612945565b5b602002602001015190506000858381518110610f0b57610f0a612945565b5b60200260200101519050600080600084815260200190815260200160002060008b73ffffffffffffffffffffffffffffffffffffffff1673ffffffffffffffffffffffffffffffffffffffff16815260200190815260200160002054905081811015610fac576040517f08c379a0000000000000000000000000000000000000000000000000000000008152600401610fa390612e00565b60405180910390fd5b81810360008085815260200190815260200160002060008c73ffffffffffffffffffffffffffffffffffffffff1673ffffffffffffffffffffffffffffffffffffffff168152602001908152602001600020819055508160008085815260200190815260200160002060008b73ffffffffffffffffffffffffffffffffffffffff1673ffffffffffffffffffffffffffffffffffffffff16815260200190815260200160002060008282546110619190612c0d565b9250508190555050505080611075906129a3565b9050610ece565b508473ffffffffffffffffffffffffffffffffffffffff168673ffffffffffffffffffffffffffffffffffffffff168273ffffffffffffffffffffffffffffffffffffffff167f4a39dc06d4c0dbc64b70af90fd698a233a518aa5d07e595d983b8c0526c8f7fb87876040516110f3929190612e20565b60405180910390a461110981878787878761166e565b61111781878787878761184d565b505050505050565b6000600360009054906101000a900473ffffffffffffffffffffffffffffffffffffffff16905081600360006101000a81548173ffffffffffffffffffffffffffffffffffffffff021916908373ffffffffffffffffffffffffffffffffffffffff1602179055508173ffffffffffffffffffffffffffffffffffffffff168173ffffffffffffffffffffffffffffffffffffffff167f8be0079c531659141344cd1fd0a4f28419497f9722a3daafe3b4186f6b6457e060405160405180910390a35050565b8173ffffffffffffffffffffffffffffffffffffffff168373ffffffffffffffffffffffffffffffffffffffff1603611253576040517f08c379a000000000000000000000000000000000000000000000000000000000815260040161124a90612ec9565b60405180910390fd5b80600160008573ffffffffffffffffffffffffffffffffffffffff1673ffffffffffffffffffffffffffffffffffffffff16815260200190815260200160002060008473ffffffffffffffffffffffffffffffffffffffff1673ffffffffffffffffffffffffffffffffffffffff16815260200190815260200160002060006101000a81548160ff0219169083151502179055508173ffffffffffffffffffffffffffffffffffffffff168373ffffffffffffffffffffffffffffffffffffffff167f17307eab39ab6107e8899845ad3d59bd9653f200f220920489ca2b5937696c31836040516113449190611d9b565b60405180910390a3505050565b600073ffffffffffffffffffffffffffffffffffffffff168473ffffffffffffffffffffffffffffffffffffffff16036113c0576040517f08c379a00000000000000000000000000000000000000000000000000000000081526004016113b790612d6e565b60405180910390fd5b60006113ca610df6565b905060006113d7856115ec565b905060006113e4856115ec565b90506113f4838989858589611666565b600080600088815260200190815260200160002060008a73ffffffffffffffffffffffffffffffffffffffff1673ffffffffffffffffffffffffffffffffffffffff1681526020019081526020016000205490508581101561148b576040517f08c379a000000000000000000000000000000000000000000000000000000000815260040161148290612e00565b60405180910390fd5b85810360008089815260200190815260200160002060008b73ffffffffffffffffffffffffffffffffffffffff1673ffffffffffffffffffffffffffffffffffffffff168152602001908152602001600020819055508560008089815260200190815260200160002060008a73ffffffffffffffffffffffffffffffffffffffff1673ffffffffffffffffffffffffffffffffffffffff16815260200190815260200160002060008282546115409190612c0d565b925050819055508773ffffffffffffffffffffffffffffffffffffffff168973ffffffffffffffffffffffffffffffffffffffff168573ffffffffffffffffffffffffffffffffffffffff167fc3d58168c5ae7397731d063d5bbf3d657854427343f4c083240f7aacaa2d0f628a8a6040516115bd929190612c41565b60405180910390a46115d3848a8a86868a61166e565b6115e1848a8a8a8a8a611676565b505050505050505050565b60606000600167ffffffffffffffff81111561160b5761160a611b74565b5b6040519080825280602002602001820160405280156116395781602001602082028036833780820191505090505b509050828160008151811061165157611650612945565b5b60200260200101818152505080915050919050565b505050505050565b505050505050565b6116958473ffffffffffffffffffffffffffffffffffffffff16611a24565b15611845578373ffffffffffffffffffffffffffffffffffffffff1663f23a6e6187878686866040518663ffffffff1660e01b81526004016116db959493929190612f3e565b6020604051808303816000875af192505050801561171757506040513d601f19601f820116820180604052508101906117149190612fad565b60015b6117bc57611723612fe7565b806308c379a00361177f5750611737613009565b806117425750611781565b806040517f08c379a00000000000000000000000000000000000000000000000000000000081526004016117769190611e62565b60405180910390fd5b505b6040517f08c379a00000000000000000000000000000000000000000000000000000000081526004016117b39061310b565b60405180910390fd5b63f23a6e6160e01b7bffffffffffffffffffffffffffffffffffffffffffffffffffffffff1916817bffffffffffffffffffffffffffffffffffffffffffffffffffffffff191614611843576040517f08c379a000000000000000000000000000000000000000000000000000000000815260040161183a9061319d565b60405180910390fd5b505b505050505050565b61186c8473ffffffffffffffffffffffffffffffffffffffff16611a24565b15611a1c578373ffffffffffffffffffffffffffffffffffffffff1663bc197c8187878686866040518663ffffffff1660e01b81526004016118b29594939291906131bd565b6020604051808303816000875af19250505080156118ee57506040513d601f19601f820116820180604052508101906118eb9190612fad565b60015b611993576118fa612fe7565b806308c379a003611956575061190e613009565b806119195750611958565b806040517f08c379a000000000000000000000000000000000000000000000000000000000815260040161194d9190611e62565b60405180910390fd5b505b6040517f08c379a000000000000000000000000000000000000000000000000000000000815260040161198a9061310b565b60405180910390fd5b63bc197c8160e01b7bffffffffffffffffffffffffffffffffffffffffffffffffffffffff1916817bffffffffffffffffffffffffffffffffffffffffffffffffffffffff191614611a1a576040517f08c379a0000000000000000000000000000000000000000000000000000000008152600401611a119061319d565b60405180910390fd5b505b505050505050565b6000808273ffffffffffffffffffffffffffffffffffffffff163b119050919050565b6000604051905090565b600080fd5b600080fd5b600073ffffffffffffffffffffffffffffffffffffffff82169050919050565b6000611a8682611a5b565b9050919050565b611a9681611a7b565b8114611aa157600080fd5b50565b600081359050611ab381611a8d565b92915050565b6000819050919050565b611acc81611ab9565b8114611ad757600080fd5b50565b600081359050611ae981611ac3565b92915050565b60008060408385031215611b0657611b05611a51565b5b6000611b1485828601611aa4565b9250506020611b2585828601611ada565b9150509250929050565b611b3881611ab9565b82525050565b6000602082019050611b536000830184611b2f565b92915050565b600080fd5b600080fd5b6000601f19601f8301169050919050565b7f4e487b7100000000000000000000000000000000000000000000000000000000600052604160045260246000fd5b611bac82611b63565b810181811067ffffffffffffffff82111715611bcb57611bca611b74565b5b80604052505050565b6000611bde611a47565b9050611bea8282611ba3565b919050565b600067ffffffffffffffff821115611c0a57611c09611b74565b5b611c1382611b63565b9050602081019050919050565b82818337600083830152505050565b6000611c42611c3d84611bef565b611bd4565b905082815260208101848484011115611c5e57611c5d611b5e565b5b611c69848285611c20565b509392505050565b600082601f830112611c8657611c85611b59565b5b8135611c96848260208601611c2f565b91505092915050565b60008060408385031215611cb657611cb5611a51565b5b6000611cc485828601611ada565b925050602083013567ffffffffffffffff811115611ce557611ce4611a56565b5b611cf185828601611c71565b9150509250929050565b60007fffffffff0000000000000000000000000000000000000000000000000000000082169050919050565b611d3081611cfb565b8114611d3b57600080fd5b50565b600081359050611d4d81611d27565b92915050565b600060208284031215611d6957611d68611a51565b5b6000611d7784828501611d3e565b91505092915050565b60008115159050919050565b611d9581611d80565b82525050565b6000602082019050611db06000830184611d8c565b92915050565b600060208284031215611dcc57611dcb611a51565b5b6000611dda84828501611ada565b91505092915050565b600081519050919050565b600082825260208201905092915050565b60005b83811015611e1d578082015181840152602081019050611e02565b60008484015250505050565b6000611e3482611de3565b611e3e8185611dee565b9350611e4e818560208601611dff565b611e5781611b63565b840191505092915050565b60006020820190508181036000830152611e7c8184611e29565b905092915050565b600067ffffffffffffffff821115611e9f57611e9e611b74565b5b602082029050602081019050919050565b600080fd5b6000611ec8611ec384611e84565b611bd4565b90508083825260208201905060208402830185811115611eeb57611eea611eb0565b5b835b81811015611f145780611f008882611ada565b845260208401935050602081019050611eed565b5050509392505050565b600082601f830112611f3357611f32611b59565b5b8135611f43848260208601611eb5565b91505092915050565b600067ffffffffffffffff821115611f6757611f66611b74565b5b611f7082611b63565b9050602081019050919050565b6000611f90611f8b84611f4c565b611bd4565b905082815260208101848484011115611fac57611fab611b5e565b5b611fb7848285611c20565b509392505050565b600082601f830112611fd457611fd3611b59565b5b8135611fe4848260208601611f7d565b91505092915050565b600080600080600060a0868803121561200957612008611a51565b5b600061201788828901611aa4565b955050602061202888828901611aa4565b945050604086013567ffffffffffffffff81111561204957612048611a56565b5b61205588828901611f1e565b935050606086013567ffffffffffffffff81111561207657612075611a56565b5b61208288828901611f1e565b925050608086013567ffffffffffffffff8111156120a3576120a2611a56565b5b6120af88828901611fbf565b9150509295509295909350565b600067ffffffffffffffff8211156120d7576120d6611b74565b5b602082029050602081019050919050565b60006120fb6120f6846120bc565b611bd4565b9050808382526020820190506020840283018581111561211e5761211d611eb0565b5b835b8181101561214757806121338882611aa4565b845260208401935050602081019050612120565b5050509392505050565b600082601f83011261216657612165611b59565b5b81356121768482602086016120e8565b91505092915050565b6000806040838503121561219657612195611a51565b5b600083013567ffffffffffffffff8111156121b4576121b3611a56565b5b6121c085828601612151565b925050602083013567ffffffffffffffff8111156121e1576121e0611a56565b5b6121ed85828601611f1e565b9150509250929050565b600081519050919050565b600082825260208201905092915050565b6000819050602082019050919050565b61222c81611ab9565b82525050565b600061223e8383612223565b60208301905092915050565b6000602082019050919050565b6000612262826121f7565b61226c8185612202565b935061227783612213565b8060005b838110156122a857815161228f8882612232565b975061229a8361224a565b92505060018101905061227b565b5085935050505092915050565b600060208201905081810360008301526122cf8184612257565b905092915050565b6122e081611a7b565b82525050565b60006020820190506122fb60008301846122d7565b92915050565b61230a81611d80565b811461231557600080fd5b50565b60008135905061232781612301565b92915050565b6000806040838503121561234457612343611a51565b5b600061235285828601611aa4565b925050602061236385828601612318565b9150509250929050565b6000806040838503121561238457612383611a51565b5b600061239285828601611ada565b92505060206123a385828601611aa4565b9150509250929050565b600080604083850312156123c4576123c3611a51565b5b60006123d285828601611aa4565b92505060206123e385828601611aa4565b9150509250929050565b600080600080600060a0868803121561240957612408611a51565b5b600061241788828901611aa4565b955050602061242888828901611aa4565b945050604061243988828901611ada565b935050606061244a88828901611ada565b925050608086013567ffffffffffffffff81111561246b5761246a611a56565b5b61247788828901611fbf565b9150509295509295909350565b60006020828403121561249a57612499611a51565b5b60006124a884828501611aa4565b91505092915050565b7f455243313135353a2061646472657373207a65726f206973206e6f742061207660008201527f616c6964206f776e657200000000000000000000000000000000000000000000602082015250565b600061250d602a83611dee565b9150612518826124b1565b604082019050919050565b6000602082019050818103600083015261253c81612500565b9050919050565b7f4e487b7100000000000000000000000000000000000000000000000000000000600052602260045260246000fd5b6000600282049050600182168061258a57607f821691505b60208210810361259d5761259c612543565b5b50919050565b60008190508160005260206000209050919050565b60006020601f8301049050919050565b600082821b905092915050565b6000600883026126057fffffffffffffffffffffffffffffffffffffffffffffffffffffffffffffffff826125c8565b61260f86836125c8565b95508019841693508086168417925050509392505050565b6000819050919050565b600061264c61264761264284611ab9565b612627565b611ab9565b9050919050565b6000819050919050565b61266683612631565b61267a61267282612653565b8484546125d5565b825550505050565b600090565b61268f612682565b61269a81848461265d565b505050565b5b818110156126be576126b3600082612687565b6001810190506126a0565b5050565b601f821115612703576126d4816125a3565b6126dd846125b8565b810160208510156126ec578190505b6127006126f8856125b8565b83018261269f565b50505b505050565b600082821c905092915050565b600061272660001984600802612708565b1980831691505092915050565b600061273f8383612715565b9150826002028217905092915050565b61275882611de3565b67ffffffffffffffff81111561277157612770611b74565b5b61277b8254612572565b6127868282856126c2565b600060209050601f8311600181146127b957600084156127a7578287015190505b6127b18582612733565b865550612819565b601f1984166127c7866125a3565b60005b828110156127ef578489015182556001820191506020850194506020810190506127ca565b8683101561280c5784890151612808601f891682612715565b8355505b6001600288020188555050505b505050505050565b7f455243313135353a2063616c6c6572206973206e6f7420746f6b656e206f776e60008201527f6572206f7220617070726f766564000000000000000000000000000000000000602082015250565b600061287d602e83611dee565b915061288882612821565b604082019050919050565b600060208201905081810360008301526128ac81612870565b9050919050565b7f455243313135353a206163636f756e747320616e6420696473206c656e67746860008201527f206d69736d617463680000000000000000000000000000000000000000000000602082015250565b600061290f602983611dee565b915061291a826128b3565b604082019050919050565b6000602082019050818103600083015261293e81612902565b9050919050565b7f4e487b7100000000000000000000000000000000000000000000000000000000600052603260045260246000fd5b7f4e487b7100000000000000000000000000000000000000000000000000000000600052601160045260246000fd5b60006129ae82611ab9565b91507fffffffffffffffffffffffffffffffffffffffffffffffffffffffffffffffff82036129e0576129df612974565b5b600182019050919050565b7f4f6e6c79206f776e6572206f7220746f6b656e20686f6c6465722063616e207360008201527f65742073656c6c65720000000000000000000000000000000000000000000000602082015250565b6000612a47602983611dee565b9150612a52826129eb565b604082019050919050565b60006020820190508181036000830152612a7681612a3a565b9050919050565b7f4f776e61626c653a206e6577206f776e657220697320746865207a65726f206160008201527f6464726573730000000000000000000000000000000000000000000000000000602082015250565b6000612ad9602683611dee565b9150612ae482612a7d565b604082019050919050565b60006020820190508181036000830152612b0881612acc565b9050919050565b7f4f776e61626c653a2063616c6c6572206973206e6f7420746865206f776e6572600082015250565b6000612b45602083611dee565b9150612b5082612b0f565b602082019050919050565b60006020820190508181036000830152612b7481612b38565b9050919050565b7f455243313135353a206d696e7420746f20746865207a65726f2061646472657360008201527f7300000000000000000000000000000000000000000000000000000000000000602082015250565b6000612bd7602183611dee565b9150612be282612b7b565b604082019050919050565b60006020820190508181036000830152612c0681612bca565b9050919050565b6000612c1882611ab9565b9150612c2383611ab9565b9250828201905080821115612c3b57612c3a612974565b5b92915050565b6000604082019050612c566000830185611b2f565b612c636020830184611b2f565b9392505050565b7f455243313135353a2069647320616e6420616d6f756e7473206c656e6774682060008201527f6d69736d61746368000000000000000000000000000000000000000000000000602082015250565b6000612cc6602883611dee565b9150612cd182612c6a565b604082019050919050565b60006020820190508181036000830152612cf581612cb9565b9050919050565b7f455243313135353a207472616e7366657220746f20746865207a65726f20616460008201527f6472657373000000000000000000000000000000000000000000000000000000602082015250565b6000612d58602583611dee565b9150612d6382612cfc565b604082019050919050565b60006020820190508181036000830152612d8781612d4b565b9050919050565b7f455243313135353a20696e73756666696369656e742062616c616e636520666f60008201527f72207472616e7366657200000000000000000000000000000000000000000000602082015250565b6000612dea602a83611dee565b9150612df582612d8e565b604082019050919050565b60006020820190508181036000830152612e1981612ddd565b9050919050565b60006040820190508181036000830152612e3a8185612257565b90508181036020830152612e4e8184612257565b90509392505050565b7f455243313135353a2073657474696e6720617070726f76616c2073746174757360008201527f20666f722073656c660000000000000000000000000000000000000000000000602082015250565b6000612eb3602983611dee565b9150612ebe82612e57565b604082019050919050565b60006020820190508181036000830152612ee281612ea6565b9050919050565b600081519050919050565b600082825260208201905092915050565b6000612f1082612ee9565b612f1a8185612ef4565b9350612f2a818560208601611dff565b612f3381611b63565b840191505092915050565b600060a082019050612f5360008301886122d7565b612f6060208301876122d7565b612f6d6040830186611b2f565b612f7a6060830185611b2f565b8181036080830152612f8c8184612f05565b90509695505050505050565b600081519050612fa781611d27565b92915050565b600060208284031215612fc357612fc2611a51565b5b6000612fd184828501612f98565b91505092915050565b60008160e01c9050919050565b600060033d11156130065760046000803e613003600051612fda565b90505b90565b600060443d106130965761301b611a47565b60043d036004823e80513d602482011167ffffffffffffffff82111715613043575050613096565b808201805167ffffffffffffffff8111156130615750505050613096565b80602083010160043d03850181111561307e575050505050613096565b61308d82602001850186611ba3565b82955050505050505b90565b7f455243313135353a207472616e7366657220746f206e6f6e2d4552433131353560008201527f526563656976657220696d706c656d656e746572000000000000000000000000602082015250565b60006130f5603483611dee565b915061310082613099565b604082019050919050565b60006020820190508181036000830152613124816130e8565b9050919050565b7f455243313135353a204552433131353552656365697665722072656a6563746560008201527f6420746f6b656e73000000000000000000000000000000000000000000000000602082015250565b6000613187602883611dee565b91506131928261312b565b604082019050919050565b600060208201905081810360008301526131b68161317a565b9050919050565b600060a0820190506131d260008301886122d7565b6131df60208301876122d7565b81810360408301526131f18186612257565b905081810360608301526132058185612257565b905081810360808301526132198184612f05565b9050969550505050505056fea264697066735822122024a99e8d54b7cf9f492dd8a1ba98e1f232b6a3f84dc9449b1cd3557fbbe90abb64736f6c63430008130033",
  "immutableReferences": {},
  "source": "// SPDX-License-Identifier: MIT\r\n\r\npragma solidity ^0.8.0;\r\n\r\nimport \"@openzeppelin/contracts/token/ERC1155/ERC1155.sol\";\r\nimport \"@openzeppelin/contracts/access/Ownable.sol\";\r\nimport \"@openzeppelin/contracts/utils/math/SafeMath.sol\";\r\n\r\ncontract DigitalCollection is ERC1155, Ownable {\r\n    using SafeMath for uint256;\r\n\r\n    uint256 private _currentTokenId = 0;\r\n    mapping(uint256 => string) private _tokenURIs;\r\n    mapping(uint256 => address) private _tokenSellers;\r\n\r\n    constructor(string memory baseURI) ERC1155(baseURI) {}\r\n\r\n    function create(uint256 amount, string memory newTokenURI) public onlyOwner {\r\n        uint256 newTokenId = _currentTokenId;\r\n        _mint(msg.sender, newTokenId, amount, \"\");\r\n        _tokenURIs[newTokenId] = newTokenURI;\r\n        _currentTokenId = newTokenId.add(1);\r\n    }\r\n\r\n    function setTokenSeller(uint256 tokenId, address seller) public {\r\n        require(msg.sender == owner() || balanceOf(msg.sender, tokenId) > 0, \"Only owner or token holder can set seller\");\r\n        _tokenSellers[tokenId] = seller;\r\n    }\r\n\r\n    function tokenURI(uint256 tokenId) public view returns (string memory) {\r\n        return _tokenURIs[tokenId];\r\n    }\r\n\r\n    function getSeller(uint256 tokenId) public view returns (address) {\r\n        return _tokenSellers[tokenId];\r\n    }\r\n}\r\n",
  "sourcePath": "C:\\Users\\Usuario\\Desktop\\Creacin de tokens ERC-721 y ERC-1155\\contracts\\DigitalCollection.sol",
  "compiler": {
    "name": "solc",
    "version": "0.8.19+commit.7dd6d404.Emscripten.clang"
  },
  "schemaVersion": "3.4.13",
  "updatedAt": "2023-03-22T22:14:54.166Z",
  "networkType": "ethereum",
  "devdoc": {
    "events": {
      "ApprovalForAll(address,address,bool)": {
        "details": "Emitted when `account` grants or revokes permission to `operator` to transfer their tokens, according to `approved`."
      },
      "TransferBatch(address,address,address,uint256[],uint256[])": {
        "details": "Equivalent to multiple {TransferSingle} events, where `operator`, `from` and `to` are the same for all transfers."
      },
      "TransferSingle(address,address,address,uint256,uint256)": {
        "details": "Emitted when `value` tokens of token type `id` are transferred from `from` to `to` by `operator`."
      },
      "URI(string,uint256)": {
        "details": "Emitted when the URI for token type `id` changes to `value`, if it is a non-programmatic URI. If an {URI} event was emitted for `id`, the standard https://eips.ethereum.org/EIPS/eip-1155#metadata-extensions[guarantees] that `value` will equal the value returned by {IERC1155MetadataURI-uri}."
      }
    },
    "kind": "dev",
    "methods": {
      "balanceOf(address,uint256)": {
        "details": "See {IERC1155-balanceOf}. Requirements: - `account` cannot be the zero address."
      },
      "balanceOfBatch(address[],uint256[])": {
        "details": "See {IERC1155-balanceOfBatch}. Requirements: - `accounts` and `ids` must have the same length."
      },
      "isApprovedForAll(address,address)": {
        "details": "See {IERC1155-isApprovedForAll}."
      },
      "owner()": {
        "details": "Returns the address of the current owner."
      },
      "renounceOwnership()": {
        "details": "Leaves the contract without owner. It will not be possible to call `onlyOwner` functions anymore. Can only be called by the current owner. NOTE: Renouncing ownership will leave the contract without an owner, thereby removing any functionality that is only available to the owner."
      },
      "safeBatchTransferFrom(address,address,uint256[],uint256[],bytes)": {
        "details": "See {IERC1155-safeBatchTransferFrom}."
      },
      "safeTransferFrom(address,address,uint256,uint256,bytes)": {
        "details": "See {IERC1155-safeTransferFrom}."
      },
      "setApprovalForAll(address,bool)": {
        "details": "See {IERC1155-setApprovalForAll}."
      },
      "supportsInterface(bytes4)": {
        "details": "See {IERC165-supportsInterface}."
      },
      "transferOwnership(address)": {
        "details": "Transfers ownership of the contract to a new account (`newOwner`). Can only be called by the current owner."
      },
      "uri(uint256)": {
        "details": "See {IERC1155MetadataURI-uri}. This implementation returns the same URI for *all* token types. It relies on the token type ID substitution mechanism https://eips.ethereum.org/EIPS/eip-1155#metadata[defined in the EIP]. Clients calling this function must replace the `\\{id\\}` substring with the actual token type ID."
      }
    },
    "version": 1
  },
  "userdoc": {
    "kind": "user",
    "methods": {},
    "version": 1
  }
}