{
  "contractName": "MyERC1155",
  "abi": [
    {
      "inputs": [],
      "stateMutability": "nonpayable",
      "type": "constructor"
    },
    {
      "anonymous": false,
      "inputs": [
        {
          "indexed": true,
          "internalType": "address",
          "name": "account",
          "type": "address"
        },
        {
          "indexed": true,
          "internalType": "address",
          "name": "operator",
          "type": "address"
        },
        {
          "indexed": false,
          "internalType": "bool",
          "name": "approved",
          "type": "bool"
        }
      ],
      "name": "ApprovalForAll",
      "type": "event"
    },
    {
      "anonymous": false,
      "inputs": [
        {
          "indexed": true,
          "internalType": "address",
          "name": "previousOwner",
          "type": "address"
        },
        {
          "indexed": true,
          "internalType": "address",
          "name": "newOwner",
          "type": "address"
        }
      ],
      "name": "OwnershipTransferred",
      "type": "event"
    },
    {
      "anonymous": false,
      "inputs": [
        {
          "indexed": true,
          "internalType": "address",
          "name": "operator",
          "type": "address"
        },
        {
          "indexed": true,
          "internalType": "address",
          "name": "from",
          "type": "address"
        },
        {
          "indexed": true,
          "internalType": "address",
          "name": "to",
          "type": "address"
        },
        {
          "indexed": false,
          "internalType": "uint256[]",
          "name": "ids",
          "type": "uint256[]"
        },
        {
          "indexed": false,
          "internalType": "uint256[]",
          "name": "values",
          "type": "uint256[]"
        }
      ],
      "name": "TransferBatch",
      "type": "event"
    },
    {
      "anonymous": false,
      "inputs": [
        {
          "indexed": true,
          "internalType": "address",
          "name": "operator",
          "type": "address"
        },
        {
          "indexed": true,
          "internalType": "address",
          "name": "from",
          "type": "address"
        },
        {
          "indexed": true,
          "internalType": "address",
          "name": "to",
          "type": "address"
        },
        {
          "indexed": false,
          "internalType": "uint256",
          "name": "id",
          "type": "uint256"
        },
        {
          "indexed": false,
          "internalType": "uint256",
          "name": "value",
          "type": "uint256"
        }
      ],
      "name": "TransferSingle",
      "type": "event"
    },
    {
      "anonymous": false,
      "inputs": [
        {
          "indexed": false,
          "internalType": "string",
          "name": "value",
          "type": "string"
        },
        {
          "indexed": true,
          "internalType": "uint256",
          "name": "id",
          "type": "uint256"
        }
      ],
      "name": "URI",
      "type": "event"
    },
    {
      "inputs": [
        {
          "internalType": "address",
          "name": "account",
          "type": "address"
        },
        {
          "internalType": "uint256",
          "name": "id",
          "type": "uint256"
        }
      ],
      "name": "balanceOf",
      "outputs": [
        {
          "internalType": "uint256",
          "name": "",
          "type": "uint256"
        }
      ],
      "stateMutability": "view",
      "type": "function"
    },
    {
      "inputs": [
        {
          "internalType": "address[]",
          "name": "accounts",
          "type": "address[]"
        },
        {
          "internalType": "uint256[]",
          "name": "ids",
          "type": "uint256[]"
        }
      ],
      "name": "balanceOfBatch",
      "outputs": [
        {
          "internalType": "uint256[]",
          "name": "",
          "type": "uint256[]"
        }
      ],
      "stateMutability": "view",
      "type": "function"
    },
    {
      "inputs": [
        {
          "internalType": "address",
          "name": "account",
          "type": "address"
        },
        {
          "internalType": "address",
          "name": "operator",
          "type": "address"
        }
      ],
      "name": "isApprovedForAll",
      "outputs": [
        {
          "internalType": "bool",
          "name": "",
          "type": "bool"
        }
      ],
      "stateMutability": "view",
      "type": "function"
    },
    {
      "inputs": [],
      "name": "owner",
      "outputs": [
        {
          "internalType": "address",
          "name": "",
          "type": "address"
        }
      ],
      "stateMutability": "view",
      "type": "function"
    },
    {
      "inputs": [],
      "name": "renounceOwnership",
      "outputs": [],
      "stateMutability": "nonpayable",
      "type": "function"
    },
    {
      "inputs": [
        {
          "internalType": "address",
          "name": "from",
          "type": "address"
        },
        {
          "internalType": "address",
          "name": "to",
          "type": "address"
        },
        {
          "internalType": "uint256[]",
          "name": "ids",
          "type": "uint256[]"
        },
        {
          "internalType": "uint256[]",
          "name": "amounts",
          "type": "uint256[]"
        },
        {
          "internalType": "bytes",
          "name": "data",
          "type": "bytes"
        }
      ],
      "name": "safeBatchTransferFrom",
      "outputs": [],
      "stateMutability": "nonpayable",
      "type": "function"
    },
    {
      "inputs": [
        {
          "internalType": "address",
          "name": "from",
          "type": "address"
        },
        {
          "internalType": "address",
          "name": "to",
          "type": "address"
        },
        {
          "internalType": "uint256",
          "name": "id",
          "type": "uint256"
        },
        {
          "internalType": "uint256",
          "name": "amount",
          "type": "uint256"
        },
        {
          "internalType": "bytes",
          "name": "data",
          "type": "bytes"
        }
      ],
      "name": "safeTransferFrom",
      "outputs": [],
      "stateMutability": "nonpayable",
      "type": "function"
    },
    {
      "inputs": [
        {
          "internalType": "address",
          "name": "operator",
          "type": "address"
        },
        {
          "internalType": "bool",
          "name": "approved",
          "type": "bool"
        }
      ],
      "name": "setApprovalForAll",
      "outputs": [],
      "stateMutability": "nonpayable",
      "type": "function"
    },
    {
      "inputs": [
        {
          "internalType": "bytes4",
          "name": "interfaceId",
          "type": "bytes4"
        }
      ],
      "name": "supportsInterface",
      "outputs": [
        {
          "internalType": "bool",
          "name": "",
          "type": "bool"
        }
      ],
      "stateMutability": "view",
      "type": "function"
    },
    {
      "inputs": [
        {
          "internalType": "address",
          "name": "newOwner",
          "type": "address"
        }
      ],
      "name": "transferOwnership",
      "outputs": [],
      "stateMutability": "nonpayable",
      "type": "function"
    },
    {
      "inputs": [
        {
          "internalType": "uint256",
          "name": "",
          "type": "uint256"
        }
      ],
      "name": "uri",
      "outputs": [
        {
          "internalType": "string",
          "name": "",
          "type": "string"
        }
      ],
      "stateMutability": "view",
      "type": "function"
    },
    {
      "inputs": [
        {
          "internalType": "address",
          "name": "account",
          "type": "address"
        },
        {
          "internalType": "uint256",
          "name": "amount",
          "type": "uint256"
        }
      ],
      "name": "mint",
      "outputs": [],
      "stateMutability": "nonpayable",
      "type": "function"
    },
    {
      "inputs": [
        {
          "internalType": "address",
          "name": "to",
          "type": "address"
        },
        {
          "internalType": "uint256[]",
          "name": "amounts",
          "type": "uint256[]"
        }
      ],
      "name": "mintBatch",
      "outputs": [],
      "stateMutability": "nonpayable",
      "type": "function"
    },
    {
      "inputs": [
        {
          "internalType": "string",
          "name": "newuri",
          "type": "string"
        }
      ],
      "name": "setURI",
      "outputs": [],
      "stateMutability": "nonpayable",
      "type": "function"
    }
  ],
  "bytecode": "0x60806040523480156200001157600080fd5b5060405180606001604052806026815260200162001cf660269139620000378162000049565b5062000043336200005b565b6200021e565b600262000057828262000152565b5050565b600380546001600160a01b038381166001600160a01b0319831681179093556040519116919082907f8be0079c531659141344cd1fd0a4f28419497f9722a3daafe3b4186f6b6457e090600090a35050565b634e487b7160e01b600052604160045260246000fd5b600181811c90821680620000d857607f821691505b602082108103620000f957634e487b7160e01b600052602260045260246000fd5b50919050565b601f8211156200014d57600081815260208120601f850160051c81016020861015620001285750805b601f850160051c820191505b81811015620001495782815560010162000134565b5050505b505050565b81516001600160401b038111156200016e576200016e620000ad565b62000186816200017f8454620000c3565b84620000ff565b602080601f831160018114620001be5760008415620001a55750858301515b600019600386901b1c1916600185901b17855562000149565b600085815260208120601f198616915b82811015620001ef57888601518255948401946001909101908401620001ce565b50858210156200020e5787850151600019600388901b60f8161c191681555b5050505050600190811b01905550565b611ac8806200022e6000396000f3fe608060405234801561001057600080fd5b50600436106100e95760003560e01c8063715018a61161008c578063a22cb46511610066578063a22cb465146101e8578063e985e9c5146101fb578063f242432a14610237578063f2fde38b1461024a57600080fd5b8063715018a6146101b257806375ceb341146101ba5780638da5cb5b146101cd57600080fd5b80630e89341c116100c85780630e89341c1461014c5780632eb2c2d61461016c57806340c10f191461017f5780634e1273f41461019257600080fd5b8062fdd58e146100ee57806301ffc9a71461011457806302fe530514610137575b600080fd5b6101016100fc366004611045565b61025d565b6040519081526020015b60405180910390f35b610127610122366004611085565b6102f6565b604051901515815260200161010b565b61014a61014536600461114a565b610346565b005b61015f61015a36600461119b565b61035a565b60405161010b91906111fa565b61014a61017a3660046112c2565b6103ee565b61014a61018d366004611045565b61043a565b6101a56101a036600461136c565b610478565b60405161010b9190611472565b61014a6105a2565b61014a6101c8366004611485565b6105b6565b6003546040516001600160a01b03909116815260200161010b565b61014a6101f63660046114c9565b61067b565b610127610209366004611505565b6001600160a01b03918216600090815260016020908152604080832093909416825291909152205460ff1690565b61014a610245366004611538565b61068a565b61014a61025836600461159d565b6106cf565b60006001600160a01b0383166102cd5760405162461bcd60e51b815260206004820152602a60248201527f455243313135353a2061646472657373207a65726f206973206e6f742061207660448201526930b634b21037bbb732b960b11b60648201526084015b60405180910390fd5b506000818152602081815260408083206001600160a01b03861684529091529020545b92915050565b60006001600160e01b03198216636cdb3d1360e11b148061032757506001600160e01b031982166303a24d0760e21b145b806102f057506301ffc9a760e01b6001600160e01b03198316146102f0565b61034e610745565b6103578161079f565b50565b606060028054610369906115b8565b80601f0160208091040260200160405190810160405280929190818152602001828054610395906115b8565b80156103e25780601f106103b7576101008083540402835291602001916103e2565b820191906000526020600020905b8154815290600101906020018083116103c557829003601f168201915b50505050509050919050565b6001600160a01b03851633148061040a575061040a8533610209565b6104265760405162461bcd60e51b81526004016102c4906115f2565b61043385858585856107ab565b5050505050565b610442610745565b61045f826004548360405180602001604052806000815250610947565b6004805490600061046f83611656565b91905055505050565b606081518351146104dd5760405162461bcd60e51b815260206004820152602960248201527f455243313135353a206163636f756e747320616e6420696473206c656e677468604482015268040dad2e6dac2e8c6d60bb1b60648201526084016102c4565b6000835167ffffffffffffffff8111156104f9576104f96110a9565b604051908082528060200260200182016040528015610522578160200160208202803683370190505b50905060005b845181101561059a5761056d8582815181106105465761054661166f565b60200260200101518583815181106105605761056061166f565b602002602001015161025d565b82828151811061057f5761057f61166f565b602090810291909101015261059381611656565b9050610528565b509392505050565b6105aa610745565b6105b46000610a21565b565b6105be610745565b6000815167ffffffffffffffff8111156105da576105da6110a9565b604051908082528060200260200182016040528015610603578160200160208202803683370190505b50905060005b825181101561065a576004548282815181106106275761062761166f565b60209081029190910101526004805490600061064283611656565b9190505550808061065290611656565b915050610609565b5061067683828460405180602001604052806000815250610a73565b505050565b610686338383610bbe565b5050565b6001600160a01b0385163314806106a657506106a68533610209565b6106c25760405162461bcd60e51b81526004016102c4906115f2565b6104338585858585610c9e565b6106d7610745565b6001600160a01b03811661073c5760405162461bcd60e51b815260206004820152602660248201527f4f776e61626c653a206e6577206f776e657220697320746865207a65726f206160448201526564647265737360d01b60648201526084016102c4565b61035781610a21565b6003546001600160a01b031633146105b45760405162461bcd60e51b815260206004820181905260248201527f4f776e61626c653a2063616c6c6572206973206e6f7420746865206f776e657260448201526064016102c4565b600261068682826116cb565b81518351146107cc5760405162461bcd60e51b81526004016102c49061178b565b6001600160a01b0384166107f25760405162461bcd60e51b81526004016102c4906117d3565b3360005b84518110156108d95760008582815181106108135761081361166f565b6020026020010151905060008583815181106108315761083161166f565b602090810291909101810151600084815280835260408082206001600160a01b038e1683529093529190912054909150818110156108815760405162461bcd60e51b81526004016102c490611818565b6000838152602081815260408083206001600160a01b038e8116855292528083208585039055908b168252812080548492906108be908490611862565b92505081905550505050806108d290611656565b90506107f6565b50846001600160a01b0316866001600160a01b0316826001600160a01b03167f4a39dc06d4c0dbc64b70af90fd698a233a518aa5d07e595d983b8c0526c8f7fb8787604051610929929190611875565b60405180910390a461093f818787878787610dc8565b505050505050565b6001600160a01b03841661096d5760405162461bcd60e51b81526004016102c4906118a3565b33600061097985610f23565b9050600061098685610f23565b90506000868152602081815260408083206001600160a01b038b168452909152812080548792906109b8908490611862565b909155505060408051878152602081018790526001600160a01b03808a1692600092918716917fc3d58168c5ae7397731d063d5bbf3d657854427343f4c083240f7aacaa2d0f62910160405180910390a4610a1883600089898989610f6e565b50505050505050565b600380546001600160a01b038381166001600160a01b0319831681179093556040519116919082907f8be0079c531659141344cd1fd0a4f28419497f9722a3daafe3b4186f6b6457e090600090a35050565b6001600160a01b038416610a995760405162461bcd60e51b81526004016102c4906118a3565b8151835114610aba5760405162461bcd60e51b81526004016102c49061178b565b3360005b8451811015610b5657838181518110610ad957610ad961166f565b6020026020010151600080878481518110610af657610af661166f565b602002602001015181526020019081526020016000206000886001600160a01b03166001600160a01b031681526020019081526020016000206000828254610b3e9190611862565b90915550819050610b4e81611656565b915050610abe565b50846001600160a01b031660006001600160a01b0316826001600160a01b03167f4a39dc06d4c0dbc64b70af90fd698a233a518aa5d07e595d983b8c0526c8f7fb8787604051610ba7929190611875565b60405180910390a461043381600087878787610dc8565b816001600160a01b0316836001600160a01b031603610c315760405162461bcd60e51b815260206004820152602960248201527f455243313135353a2073657474696e6720617070726f76616c20737461747573604482015268103337b91039b2b63360b91b60648201526084016102c4565b6001600160a01b03838116600081815260016020908152604080832094871680845294825291829020805460ff191686151590811790915591519182527f17307eab39ab6107e8899845ad3d59bd9653f200f220920489ca2b5937696c31910160405180910390a3505050565b6001600160a01b038416610cc45760405162461bcd60e51b81526004016102c4906117d3565b336000610cd085610f23565b90506000610cdd85610f23565b90506000868152602081815260408083206001600160a01b038c16845290915290205485811015610d205760405162461bcd60e51b81526004016102c490611818565b6000878152602081815260408083206001600160a01b038d8116855292528083208985039055908a16825281208054889290610d5d908490611862565b909155505060408051888152602081018890526001600160a01b03808b16928c821692918816917fc3d58168c5ae7397731d063d5bbf3d657854427343f4c083240f7aacaa2d0f62910160405180910390a4610dbd848a8a8a8a8a610f6e565b505050505050505050565b6001600160a01b0384163b1561093f5760405163bc197c8160e01b81526001600160a01b0385169063bc197c8190610e0c90899089908890889088906004016118e4565b6020604051808303816000875af1925050508015610e47575060408051601f3d908101601f19168201909252610e4491810190611942565b60015b610ef357610e5361195f565b806308c379a003610e8c5750610e6761197b565b80610e725750610e8e565b8060405162461bcd60e51b81526004016102c491906111fa565b505b60405162461bcd60e51b815260206004820152603460248201527f455243313135353a207472616e7366657220746f206e6f6e2d455243313135356044820152732932b1b2b4bb32b91034b6b83632b6b2b73a32b960611b60648201526084016102c4565b6001600160e01b0319811663bc197c8160e01b14610a185760405162461bcd60e51b81526004016102c490611a05565b60408051600180825281830190925260609160009190602080830190803683370190505090508281600081518110610f5d57610f5d61166f565b602090810291909101015292915050565b6001600160a01b0384163b1561093f5760405163f23a6e6160e01b81526001600160a01b0385169063f23a6e6190610fb29089908990889088908890600401611a4d565b6020604051808303816000875af1925050508015610fed575060408051601f3d908101601f19168201909252610fea91810190611942565b60015b610ff957610e5361195f565b6001600160e01b0319811663f23a6e6160e01b14610a185760405162461bcd60e51b81526004016102c490611a05565b80356001600160a01b038116811461104057600080fd5b919050565b6000806040838503121561105857600080fd5b61106183611029565b946020939093013593505050565b6001600160e01b03198116811461035757600080fd5b60006020828403121561109757600080fd5b81356110a28161106f565b9392505050565b634e487b7160e01b600052604160045260246000fd5b601f8201601f1916810167ffffffffffffffff811182821017156110e5576110e56110a9565b6040525050565b600067ffffffffffffffff831115611106576111066110a9565b60405161111d601f8501601f1916602001826110bf565b80915083815284848401111561113257600080fd5b83836020830137600060208583010152509392505050565b60006020828403121561115c57600080fd5b813567ffffffffffffffff81111561117357600080fd5b8201601f8101841361118457600080fd5b611193848235602084016110ec565b949350505050565b6000602082840312156111ad57600080fd5b5035919050565b6000815180845260005b818110156111da576020818501810151868301820152016111be565b506000602082860101526020601f19601f83011685010191505092915050565b6020815260006110a260208301846111b4565b600067ffffffffffffffff821115611227576112276110a9565b5060051b60200190565b600082601f83011261124257600080fd5b8135602061124f8261120d565b60405161125c82826110bf565b83815260059390931b850182019282810191508684111561127c57600080fd5b8286015b848110156112975780358352918301918301611280565b509695505050505050565b600082601f8301126112b357600080fd5b6110a2838335602085016110ec565b600080600080600060a086880312156112da57600080fd5b6112e386611029565b94506112f160208701611029565b9350604086013567ffffffffffffffff8082111561130e57600080fd5b61131a89838a01611231565b9450606088013591508082111561133057600080fd5b61133c89838a01611231565b9350608088013591508082111561135257600080fd5b5061135f888289016112a2565b9150509295509295909350565b6000806040838503121561137f57600080fd5b823567ffffffffffffffff8082111561139757600080fd5b818501915085601f8301126113ab57600080fd5b813560206113b88261120d565b6040516113c582826110bf565b83815260059390931b85018201928281019150898411156113e557600080fd5b948201945b8386101561140a576113fb86611029565b825294820194908201906113ea565b9650508601359250508082111561142057600080fd5b5061142d85828601611231565b9150509250929050565b600081518084526020808501945080840160005b838110156114675781518752958201959082019060010161144b565b509495945050505050565b6020815260006110a26020830184611437565b6000806040838503121561149857600080fd5b6114a183611029565b9150602083013567ffffffffffffffff8111156114bd57600080fd5b61142d85828601611231565b600080604083850312156114dc57600080fd5b6114e583611029565b9150602083013580151581146114fa57600080fd5b809150509250929050565b6000806040838503121561151857600080fd5b61152183611029565b915061152f60208401611029565b90509250929050565b600080600080600060a0868803121561155057600080fd5b61155986611029565b945061156760208701611029565b93506040860135925060608601359150608086013567ffffffffffffffff81111561159157600080fd5b61135f888289016112a2565b6000602082840312156115af57600080fd5b6110a282611029565b600181811c908216806115cc57607f821691505b6020821081036115ec57634e487b7160e01b600052602260045260246000fd5b50919050565b6020808252602e908201527f455243313135353a2063616c6c6572206973206e6f7420746f6b656e206f776e60408201526d195c881bdc88185c1c1c9bdd995960921b606082015260800190565b634e487b7160e01b600052601160045260246000fd5b60006001820161166857611668611640565b5060010190565b634e487b7160e01b600052603260045260246000fd5b601f82111561067657600081815260208120601f850160051c810160208610156116ac5750805b601f850160051c820191505b8181101561093f578281556001016116b8565b815167ffffffffffffffff8111156116e5576116e56110a9565b6116f9816116f384546115b8565b84611685565b602080601f83116001811461172e57600084156117165750858301515b600019600386901b1c1916600185901b17855561093f565b600085815260208120601f198616915b8281101561175d5788860151825594840194600190910190840161173e565b508582101561177b5787850151600019600388901b60f8161c191681555b5050505050600190811b01905550565b60208082526028908201527f455243313135353a2069647320616e6420616d6f756e7473206c656e677468206040820152670dad2e6dac2e8c6d60c31b606082015260800190565b60208082526025908201527f455243313135353a207472616e7366657220746f20746865207a65726f206164604082015264647265737360d81b606082015260800190565b6020808252602a908201527f455243313135353a20696e73756666696369656e742062616c616e636520666f60408201526939103a3930b739b332b960b11b606082015260800190565b808201808211156102f0576102f0611640565b6040815260006118886040830185611437565b828103602084015261189a8185611437565b95945050505050565b60208082526021908201527f455243313135353a206d696e7420746f20746865207a65726f206164647265736040820152607360f81b606082015260800190565b6001600160a01b0386811682528516602082015260a06040820181905260009061191090830186611437565b82810360608401526119228186611437565b9050828103608084015261193681856111b4565b98975050505050505050565b60006020828403121561195457600080fd5b81516110a28161106f565b600060033d11156119785760046000803e5060005160e01c5b90565b600060443d10156119895790565b6040516003193d81016004833e81513d67ffffffffffffffff81602484011181841117156119b957505050505090565b82850191508151818111156119d15750505050505090565b843d87010160208285010111156119eb5750505050505090565b6119fa602082860101876110bf565b509095945050505050565b60208082526028908201527f455243313135353a204552433131353552656365697665722072656a656374656040820152676420746f6b656e7360c01b606082015260800190565b6001600160a01b03868116825285166020820152604081018490526060810183905260a060808201819052600090611a87908301846111b4565b97965050505050505056fea26469706673582212201c9a7617de8b2023546bf8069198cd52843d9e13b2c7a1a18c18ff462cbe09d564736f6c6343000813003368747470733a2f2f6578616d706c652e636f6d2f6170692f6974656d2f7b69647d2e6a736f6e",
  "immutableReferences": {},
  "source": "// SPDX-License-Identifier: MIT\r\n\r\npragma solidity ^0.8.0;\r\n\r\nimport \"@openzeppelin/contracts/token/ERC1155/ERC1155.sol\";\r\nimport \"@openzeppelin/contracts/access/Ownable.sol\";\r\n\r\ncontract MyERC1155 is ERC1155, Ownable {\r\n    uint256 private _itemIdCounter;\r\n\r\n    constructor() ERC1155(\"https://example.com/api/item/{id}.json\") {}\r\n\r\n    function mint(address account, uint256 amount) public onlyOwner {\r\n        _mint(account, _itemIdCounter, amount, \"\");\r\n        _itemIdCounter++;\r\n    }\r\n\r\n    function mintBatch(address to, uint256[] memory amounts) public onlyOwner {\r\n        uint256[] memory ids = new uint256[](amounts.length);\r\n        for (uint256 i = 0; i < amounts.length; i++) {\r\n            ids[i] = _itemIdCounter;\r\n            _itemIdCounter++;\r\n        }\r\n        _mintBatch(to, ids, amounts, \"\");\r\n    }\r\n\r\n    function setURI(string memory newuri) public onlyOwner {\r\n        _setURI(newuri);\r\n    }\r\n}\r\n",
  "sourcePath": "C:\\Users\\Usuario\\Desktop\\Creacin de tokens ERC-721 y ERC-1155\\contracts\\ERC-1155.sol",
  "compiler": {
    "name": "solc",
    "version": "0.8.19+commit.7dd6d404.Emscripten.clang"
  },
  "schemaVersion": "3.4.13",
  "updatedAt": "2023-03-22T20:32:36.712Z",
  "devdoc": {
    "events": {
      "ApprovalForAll(address,address,bool)": {
        "details": "Emitted when `account` grants or revokes permission to `operator` to transfer their tokens, according to `approved`."
      },
      "TransferBatch(address,address,address,uint256[],uint256[])": {
        "details": "Equivalent to multiple {TransferSingle} events, where `operator`, `from` and `to` are the same for all transfers."
      },
      "TransferSingle(address,address,address,uint256,uint256)": {
        "details": "Emitted when `value` tokens of token type `id` are transferred from `from` to `to` by `operator`."
      },
      "URI(string,uint256)": {
        "details": "Emitted when the URI for token type `id` changes to `value`, if it is a non-programmatic URI. If an {URI} event was emitted for `id`, the standard https://eips.ethereum.org/EIPS/eip-1155#metadata-extensions[guarantees] that `value` will equal the value returned by {IERC1155MetadataURI-uri}."
      }
    },
    "kind": "dev",
    "methods": {
      "balanceOf(address,uint256)": {
        "details": "See {IERC1155-balanceOf}. Requirements: - `account` cannot be the zero address."
      },
      "balanceOfBatch(address[],uint256[])": {
        "details": "See {IERC1155-balanceOfBatch}. Requirements: - `accounts` and `ids` must have the same length."
      },
      "isApprovedForAll(address,address)": {
        "details": "See {IERC1155-isApprovedForAll}."
      },
      "owner()": {
        "details": "Returns the address of the current owner."
      },
      "renounceOwnership()": {
        "details": "Leaves the contract without owner. It will not be possible to call `onlyOwner` functions anymore. Can only be called by the current owner. NOTE: Renouncing ownership will leave the contract without an owner, thereby removing any functionality that is only available to the owner."
      },
      "safeBatchTransferFrom(address,address,uint256[],uint256[],bytes)": {
        "details": "See {IERC1155-safeBatchTransferFrom}."
      },
      "safeTransferFrom(address,address,uint256,uint256,bytes)": {
        "details": "See {IERC1155-safeTransferFrom}."
      },
      "setApprovalForAll(address,bool)": {
        "details": "See {IERC1155-setApprovalForAll}."
      },
      "supportsInterface(bytes4)": {
        "details": "See {IERC165-supportsInterface}."
      },
      "transferOwnership(address)": {
        "details": "Transfers ownership of the contract to a new account (`newOwner`). Can only be called by the current owner."
      },
      "uri(uint256)": {
        "details": "See {IERC1155MetadataURI-uri}. This implementation returns the same URI for *all* token types. It relies on the token type ID substitution mechanism https://eips.ethereum.org/EIPS/eip-1155#metadata[defined in the EIP]. Clients calling this function must replace the `\\{id\\}` substring with the actual token type ID."
      }
    },
    "version": 1
  },
  "userdoc": {
    "kind": "user",
    "methods": {},
    "version": 1
  }
}